:020000020000FC
:040000000C94380321
:1001EC00204A6F79737469636B20583A5920000068
:1001FC0054696D653A20000020436F6F6B20546981
:10020C006D653A2000002053746174653A2000003B
:10021C008AB1806E8AB984B1836084B98AB1837ED5
:10022C008AB98BB18C618BB901E804BD05E005BDC1
:10023C0000E007BD08952FEF81EE94E0215080403F
:10024C009040E1F708950895212F2F7020631295A7
:10025C001F7010630895212F1F7000E31A3008F0EF
:10026C0007E3100F22952F7000E32A3008F007E304
:10027C00200F0895E4EAF2E0A8E0B1E02FE2259027
:10028C003590239502191309E0F7020D131D2D93D8
:10029C00C895002099F708951027E80364000A0018
:1002AC000100000040E458EC6AEF000000006A9581
:1002BC00E1F75A95C9F74A95B1F70895080141E15C
:1002CC0022183324001C111C4A9559F0221C331C93
:1002DC00221A330A20F4220E331E8894F3CF08948A
:1002EC00F1CF089549E02218002E001C4A9541F0E8
:1002FC00221C221A18F4220E8894F7CF0894F5CFFA
:10030C00089540E04093C50047E64093C40048E19F
:10031C004093C10046E04093C20008954091C00054
:10032C0045FFFCCF0093C60008954091C00047FFE5
:10033C00FCCF6091C60008950DE00E9494010AE084
:10034C000E9494010895013029F00191003039F098
:10035C00E5DFFBCF0591003011F0E0DFFBCF089516
:10036C000E949B016D3019F430E03C9308956C931E
:10037C00062F0E949401683049F4AA95B04000E21F
:10038C000E94940108E00E949401EACFA39540E0FA
:10039C00B41FE6CF089580E480937C0087E88093B7
:1003AC007A000895ECE7F0E090818770987F892BB4
:1003BC008083EAE7F0E0808180648083808186FD21
:1003CC000C94E4018091780090917900089550E0AC
:1003DC005093B90058E45093B80054E05093BC00CB
:1003EC00089544EA4093BC00ECEBF0E040814423D8
:1003FC00ECF77093BB0084E88093BC00ECEBF0E06E
:10040C0080818823ECF74091B900487B81E048312A
:10041C0009F080E008950E94F701089584E9809323
:10042C00BC00089554E85093BC005091BC0057FF99
:10043C00FCCFB091BB00089584EC8093BC00ECEB36
:10044C00F0E080818823ECF78091BB00089584E86C
:10045C008093BC00ECEBF0E080818823ECF780917A
:10046C00BB0008958093BB0084E88093BC00CCEB68
:10047C00D0E088818823ECF74091B90081E04632C6
:10048C0009F480E008950E941102892F0E9438021D
:10049C00862F0E9438020E9414020895672F0E9432
:1004AC001102892F0E94380271E0760F0E9411020E
:1004BC000E942D02682F0E941402862F08950E941C
:1004CC001102892F0E943802209739F0F80181918E
:1004DC008F010E9438022197C9F70E9414020895D7
:1004EC0070ED0E94110270ED97E060E00E944902ED
:1004FC00089570ED0E945402089570ED97E060E04D
:10050C000E94490270ED92E066E10E94490270ED92
:10051C0091E068E50E94490270ED90E061E10E9473
:10052C004902089570EE0E94110281E20E94380285
:10053C000E9414020E94110281E80E9438020E945B
:10054C0014020E94110285EE0E9438020E941402CD
:10055C0000E210E00E94BF0200E211E00E94BF0224
:10056C0000E212E00E94BF0200E213E00E94BF0210
:10057C000895E0EBF5E00052000FE00F00E0F01FF3
:10058C002591349170EE0E941102812F880F0E94E8
:10059C003802822F0E943802832F0E9438020E9458
:1005AC0014020895000006002002CE12ED12240C55
:1005BC005D23000400240009C03FC0120008C000E5
:1005CC000000000C3F000600DB00CF00E600ED0051
:1005DC00FD000700FF00EF000012000A0024C80015
:1005EC0000098310BB02F7008F1239000F12F900BB
:1005FC007100BD00F60000121E0070243800360594
:10060C0036213F00F3003F20F320ED0001123E00A5
:10061C00300C3628002D0015090C390000210F0074
:10062C00030C0800000158107820D8008E085808D8
:10063C0071008E04701000100E0000363000D410C3
:10064C005010DC00700186045000882078001C00DB
:10065C0004201428C0280C204808490900128924B9
:10066C002005FF3F08E00EBF0FEF0DBF0E940E01EB
:10067C000E9487010E94D1010E94ED010E94760226
:10068C000E9498020C946A030E94C9034B9B0C9421
:10069C0096035F984C9B0C947C03009100014A9943
:1006AC000C9462030330E1F1013089F1043079F1EB
:1006BC00003069F10C944A030E94ED03033021F3DE
:1006CC00913011F30C949F0380E0809300010E9401
:1006DC00830200E0009305010093060100930701DB
:1006EC0058985F9800E007BD0C944A0381E0809312
:1006FC00000158985F9800E00093050100930601F3
:10070C0000E007BD5D9A0E9421010C944A0383E02E
:10071C0080930001589A5F9803E207BD0C944A033A
:10072C0084E08093000158985F9A00E007BD0C9418
:10073C004A0382E08093000158985F9800E007BD5F
:10074C00A0910501B091060150910201573838F47F
:10075C00B03011F4A03021F01A970C94B6031A960D
:10076C00A0930501B09306010E940C040E9458014D
:10077C000E94ED03509104015030D9F284E0809333
:10078C0000010C944A030E9421015D9860910701BD
:10079C006A30B9F460E06093070170910001733026
:1007AC0071F4A0910501B0910601A395119711F474
:1007BC000C947C031197A0930501B09306010E9441
:1007CC000C0460910701639560930701089580E024
:1007DC000E94D8019295990F990F86958695892B31
:1007EC008093030181E00E94D8019295990F990F93
:1007FC0086958695892B8093020190E0833718F0BB
:10080C00873808F491E09093040108950E94A201A6
:10081C00ECEFF1E001E00E94A9010E944304E4E046
:10082C00F2E001E00E94A9010E949604E2E1F2E0EC
:10083C0001E00E94A9010091000100630E94940153
:10084C00ECEEF1E001E00E94A901109102010E947E
:10085C003101012F0E949401022F0E9494010AE39E
:10086C000E949401109103010E943101012F0E94FA
:10087C009401022F0E949401089592E00E947F023D
:10088C00182F0E942A01012F0E949401022F0E940E
:10089C0094010AE30E94940191E00E947F02182FB8
:1008AC000E942A01012F0E949401022F0E949401A0
:1008BC000AE30E94940190E00E947F02182F0E948C
:1008CC002A01012F0E949401022F0E949401009191
:1008DC000001013031F0033011F1043001F102302C
:1008EC00F1F092E00E947F02182F0E942A01922FB1
:1008FC00012F10E00E94BF02092F11E00E94BF02DD
:10090C0091E00E947F02182F0E942A01922F012F42
:10091C0012E00E94BF02092F13E00E94BF0208954B
:10092C0000910501109106010E94400100E0009326
:10093C000D0100930E0100930F01E8E0F1E00E941D
:10094C00A90100910001003071F1013061F1033017
:10095C0021F0043011F0023001F0009105011091EA
:10096C0006012CE330E00E946401402C522C042D33
:10097C002AE00E94780100E3000D10E00E94BF0203
:10098C0000E3020D11E00E94BF02052D2AE00E9437
:10099C00780100E3000D12E00E94BF0200E3020D9B
:0809AC0013E00E94BF02089550
:00000001FF
